:020000040000FA
:100000000C9464000C948C000C948C000C948C0068
:100010000C948C000C948C000C948C000C94220496
:100020000C948C000C948C000C948C000C94A40404
:100030000C948C000C948C000C948C000C948C0010
:100040000C94D8030C948C000C948C000C948C00B1
:100050000C948C000C948C000C948C000C948C00F0
:100060000C948C000C948C000000000023002600EF
:1000700029000200000000240027002A00000000E0
:1000800000250028002B00040404040404040402D6
:100090000202020202030303030303010204081025
:1000A00020408001020408102001020408102000F2
:1000B0000000080002010000030407000000000027
:1000C000000000004F09A50911241FBECFEFD8E0A2
:1000D000DEBFCDBF11E0A0E0B1E0E2EBF8E102C08D
:1000E00005900D92A638B107D9F721E0A6E8B1E056
:1000F00001C01D92AD3FB207E1F710E0C3E6D0E0CA
:1001000004C02197FE010E94540AC236D107C9F7E4
:100110000E9460050C944C0C0C9400008F929F92EE
:10012000AF92BF92FF920F931F93CF93DF93F09004
:10013000D8012BE02F1508F44CC02091DA0108E516
:1001400012E0021B110927FD1395000F111F000F6C
:10015000111F2091D901C8E8D0E0C21BD10927FDA9
:10016000D395CC0FDD1FCC0FDD1F4E010D2E000CE3
:10017000AA08BB089801012E000C440B550B281946
:1001800039094A095B09DC010E94D80924EB30E0F7
:1001900040E050E00E94AE09820E931EA41EB51EE0
:1001A0008C169D062CF0E801801691060CF4E401F3
:1001B0002297CC0FDD1F2FB7F8948F2D90E0FC0114
:1001C000EE0FFF1FE80FF91FEC54FE4FD283C183DF
:1001D0002FBFDF91CF911F910F91FF90BF90AF90F4
:1001E0009F908F900895833081F028F4813099F0AA
:1001F0008230A9F008958730A9F08830C9F08430A2
:10020000B1F4809180008F7D03C0809180008F7752
:1002100080938000089584B58F7784BD089584B558
:100220008F7DFBCF8091B0008F778093B0000895D1
:100230008091B0008F7DF9CF1F93CF93DF93282F4C
:1002400030E0F901E155FF4F8491F901E556FF4F88
:10025000D491F901E957FF4FC491CC23A9F0162F8F
:1002600081110E94F300EC2FF0E0EE0FFF1FE35826
:10027000FF4FA591B4918FB7F894EC91111108C07C
:10028000D095DE23DC938FBFDF91CF911F9108952E
:10029000DE2BF8CFCF93DF9390E0FC01E556FF4FC4
:1002A000249189579F4FFC0184918823C9F090E0E5
:1002B000880F991FFC01ED58FF4FA591B491FC01E7
:1002C000E358FF4FC591D49161110DC09FB7F894C9
:1002D0008C91209582238C938881282328839FBF2B
:1002E000DF91CF910895623051F49FB7F8943C911B
:1002F000822F809583238C93E8812E2BEFCF8FB7AD
:10030000F894EC912E2B2C938FBFEACF3FB7F89443
:100310008091B0019091B101A091B201B091B3016F
:1003200026B5A89B05C02F3F19F00196A11DB11D50
:100330003FBFBA2FA92F982F8827BC01CD01620F8C
:10034000711D811D911D42E0660F771F881F991F47
:100350004A95D1F708958F929F92AF92BF92CF9214
:10036000DF92EF92FF924B015C010E9486016B01CC
:100370007C010E9486016C197D098E099F09683EE7
:10038000734081059105A8F321E0821A9108A10824
:10039000B10888EEC80E83E0D81EE11CF11C811460
:1003A0009104A104B10429F7FF90EF90DF90CF9062
:1003B000BF90AF909F908F900895AF92BF92CF92D1
:1003C000DF92EF92FF920F931F93CF93DF936C0115
:1003D0007B018B01040F151FEB015E01AE18BF08F6
:1003E000C017D10759F06991D601ED91FC910190A8
:1003F000F081E02DC6010995892B79F7C501DF91C0
:10040000CF911F910F91FF90EF90DF90CF90BF9011
:10041000AF900895089590E080E00895CF93DF9322
:10042000EC018091F3019091F401009759F0209133
:10043000F5013091F6012C173D0720F081E0DF91A6
:10044000CF910895BE016F5F7F4F0E947F0B009791
:1004500089F09093F4018093F301D093F601C09357
:10046000F5012091F7013091F801232B39F7FC01B8
:100470001082E4CF80E0E3CFCF93DF93EC010E94C2
:100480000E022091F3013091F401811117C0211562
:10049000310519F0C9010E94F60A1092F401109278
:1004A000F3011092F8011092F7011092F6011092E8
:1004B000F50183EF91E0DF91CF910895D093F8019A
:1004C000C093F70164E771E0C9010E94450CF1CFC8
:1004D000FC0101900020E9F73197AF01481B590B4F
:1004E000BC018BED91E00C94DD01CF93DF93EC0127
:1004F00060E08E810E941C0161E08E810E941C01DF
:1005000060E08E810E941C018BE891E00197F1F779
:10051000DF91CF910895CF92DF92EF92FF920F93E8
:100520001F93CF93DF936C017C0187E0E80EF11CF1
:10053000D0E0C0E0062F10E0B8010C2E02C0759587
:1005400067950A94E2F76170F70181917F010E943B
:100550001C012196C430D10579F7C601DF91CF91F6
:100560001F910F91FF90EF90DF90CF900C94750248
:10057000CF92DF92EF92FF920F931F93CF93DF936F
:10058000EC01F62E642F8C810E941C018D818F3F1F
:1005900019F060E00E941C010F2D10E08F8584FF90
:1005A00025C06E0187E0C80ED11CF12CE12CB801EA
:1005B0000E2C02C0759567950A94E2F76170F601FA
:1005C00081916F010E941C01FFEFEF1AFF0A88E082
:1005D000E816F10461F7CE01DF91CF911F910F91E1
:1005E000FF90EF90DF90CF900C947502B80184E0FB
:1005F000759567958A95E1F7CE010E948B026F2D64
:10060000CE01DF91CF911F910F91FF90EF90DF907E
:10061000CF900C948B0240E0682F8BED91E00C940E
:10062000B80281E00E940B038BE39FE10197F1F791
:100630000895CF93DF93823029F49091EA01986076
:100640009093EA018093EE011092EF0180E4809391
:10065000F00180E18093F10180E58093F20161E097
:100660008091DF010E944A018091E0018F3F19F0E3
:1006700061E00E944A0161E08091E1010E944A012B
:10068000CBEDD1E09E012B5D31408091EA0184FDEC
:100690000BC084E090E021962817390744F461E00C
:1006A0008E810E944A01EECF88E090E0F4CF8BE388
:1006B0009DE00197F1F760E08091DF010E941C014D
:1006C00060E08091E1010E941C018091E0018F3F78
:1006D00019F060E00E941C018091EA0184FD34C0A1
:1006E00063E08BED91E00E948B02CBE4D6E4CE0177
:1006F0000197F1F763E08BED91E00E948B02219767
:10070000F1F763E08BED91E00E948B0283E592E0CC
:100710000197F1F762E08BED91E00E948B028091EE
:10072000EA0180620E940B0384E08093EB018CE07D
:100730000E940B030E94110382E08093EC0186E08B
:10074000DF91CF910C940B0380620E940B038BE42A
:1007500096E40197F1F78091EA0180620E940B0311
:1007600083E592E00197F1F78091EA0180620E94AF
:100770000B03D5CF41E00E94B80281E090E00895DC
:1007800010929D0110929C0110929F0110929E0167
:100790001092A1011092A0011092A3011092A20147
:1007A0001092A5011092A40190E080E00C943C020C
:1007B0001F920F920FB60F9211242F933F938F9396
:1007C0009F93AF93BF938091AC019091AD01A091A5
:1007D000AE01B091AF013091AB0123E0230F2D3773
:1007E00058F50196A11DB11D2093AB018093AC017A
:1007F0009093AD01A093AE01B093AF018091B00191
:100800009091B101A091B201B091B3010196A11DE7
:10081000B11D8093B0019093B101A093B201B09348
:10082000B301BF91AF919F918F913F912F910F9005
:100830000FBE0F901F90189526E8230F0296A11D5A
:10084000B11DD2CF1F920F920FB60F9211242F938A
:100850003F934F935F936F937F938F939F93AF9348
:10086000BF93EF93FF9380918D0190918E01A091A2
:100870008F01B0919001892B8A2B8B2BD1F1909114
:100880008801E0918901F0918A0180818927808324
:1008900080918D0190918E01A0918F01B091900176
:1008A000181619061A061B069CF480918D0190916A
:1008B0008E01A0918F01B09190010197A109B1091A
:1008C00080938D0190938E01A0938F01B09390013E
:1008D000FF91EF91BF91AF919F918F917F916F9118
:1008E0005F914F913F912F910F900FBE0F901F90EE
:1008F000189580910001E2E7F0E0E4919FEF90937A
:100900000001E13051F030F0E23069F060E00E9427
:100910001C01DECF10926E00F9CF90916F009D7F89
:1009200090936F00F3CF909170009D7F9093700033
:1009300091E09093B0009091B100987F9460909373
:10094000B1001092B300E2CF1F920F920FB60F9238
:1009500011242F933F934F935F936F937F938F93C4
:100960009F93AF93BF93CF93DF93EF93FF938091C8
:100970008701C0918601D0E087FF24C010928500D6
:1009800010928400809187018F5F8093870180910E
:100990008701082E000C990B8C179D0724F4809179
:1009A00087018C30C4F18091840090918500049679
:1009B00080349C4908F47AC080918400909185002D
:1009C000049676C080918701082E000C990B8C1735
:1009D0009D07C4F6E09187018E2FEE0F990BFC0165
:1009E000EE0FFF1FE80FF91FEC54FE4F808186FFCA
:1009F000C9CFE09187018E2FEE0F990BFC01EE0F0E
:100A0000FF1FE80FF91FEC54FE4F808160E08F73E9
:100A10000E941C01B7CF2091840030918500E091A5
:100A200087018E2FEE0F990BFC01EE0FFF1FE80FD1
:100A3000F91FEC54FE4F81819281820F931F909396
:100A4000890080938800E09187018E2FEE0F990B2B
:100A5000FC01EE0FFF1FE80FF91FEC54FE4F8081E1
:100A600086FF11C0E09187018E2FEE0F990BFC01DC
:100A7000EE0FFF1FE80FF91FEC54FE4F808161E07D
:100A80008F730E941C01FF91EF91DF91CF91BF9175
:100A9000AF919F918F917F916F915F914F913F9116
:100AA0002F910F900FBE0F901F90189580E49CE936
:100AB00090938900809388008FEF80938701E3CF24
:100AC000CF93DF9300D000D0CDB7DEB7789484B554
:100AD000826084BD84B5816084BD85B5826085BD3A
:100AE00085B5816085BD80916E00816080936E00C8
:100AF00010928100809181008260809381008091BA
:100B0000810081608093810080918000816080936A
:100B100080008091B10084608093B1008091B0002A
:100B200081608093B00080917A00846080937A0025
:100B300080917A00826080937A0080917A0081604F
:100B400080937A0080917A00806880937A00109276
:100B5000C10061E082E10E944A0160E083E10E94FD
:100B60004A0161E087E00E944A0161E088E00E945A
:100B70004A0161E089E00E944A0161E08AE00E9446
:100B80004A0162E08DE00E944A0162E08CE00E942E
:100B90004A0162E08BE00E944A0161E08EE00E941F
:100BA0004A0161E08FE00E944A0161E080E10E9419
:100BB0004A0161E08EE00E944A0160E08EE00E94FE
:100BC0001C0161E08FE00E944A0160E08FE00E941A
:100BD0001C0161E080E10E944A0161E080E10E9425
:100BE0001C018091D8018C3008F051C061E081E196
:100BF0000E944A018091D801282F30E0F901EE0FC0
:100C0000FF1FE20FF31FEC54FE4F9081907C916127
:100C100090831092D9011092DA012CE0622F0E9489
:100C2000480A829FB001112430E020E0AB01420F5E
:100C3000531FFA01EE0FFF1FE40FF51FEC54FE4F98
:100C4000908196FD16C02F5F3F4F2C30310571F714
:100C500081110FC01092800082E080938100109279
:100C6000850010928400B19A80916F008260809319
:100C70006F00E091D8018E2F90E0FC01EE0FFF1F76
:100C8000E80FF91FEC54FE4F80818064808390E070
:100C900080E00E948E0082E00E9419038FE291E0C2
:100CA0000E9468025DE8A52E50E0B52E61EA862E0E
:100CB00060E0962E78EE472E73E0572E612C712C53
:100CC00007E211E045E1C42E41E0D42E2FEF2B8343
:100CD000F80120800E5F1F4F60E0822D0E941C01F2
:100CE00021E231E03A832983F12CE12CE981FA8178
:100CF00021913191FA83E9833327F901E155FF4FBF
:100D00008491F901E556FF4F3490F901E957FF4FFF
:100D100024912C832111AEC0F601EE0DFF1D308110
:100D20003B835FEFE51AF50A83E0E816F104F1F67C
:100D300061E0822D0E941C0193E0C90ED11CE1E00C
:100D40000F321E0709F0C4CF2FB7F8948091AC0181
:100D50009091AD01A091AE01B091AF012FBF0B8179
:100D6000002309F499C22091AA01201709F47AC03E
:100D70004091A6015091A7016091A8017091A9012D
:100D80008C019D01041B150B260B370BB901A80123
:100D9000493C51056105710508F464C08093A601C2
:100DA0009093A701A093A801B093A9011B81109370
:100DB000AA01812F80538A3008F099C08091A40144
:100DC0009091A501009709F066C0012F002E000C3C
:100DD000110B005311091093A3010093A20120915C
:100DE000F7013091F8012F5F3F4F3A832983C90102
:100DF0000E940E028823A1F02091F3013091F401AA
:100E00008091F7019091F8016BE471E0820F931FDC
:100E10000E94450C09811A811093F8010093F70193
:100E2000E091EE01E23008F060C0E150F0E0E55200
:100E3000FE4F848980680E940B034091F701509116
:100E4000F8016091F3017091F4018BED91E00E9443
:100E5000DD018091A4019091A50101969093A501D7
:100E60008093A40120E030E0232B09F429CF0E94D5
:100E7000000026CF81110E94F3004C81E42FF0E0A6
:100E8000EE0FFF1FE859FF4FA591B491EC913E2260
:100E900009F442CF46CF8130910559F40B81002EE1
:100EA000000C110B005311091093A1010093A00134
:100EB00096CF8230910559F40B81002E000C110B56
:100EC0000053110910939F0100939E0188CF03974F
:100ED00009F085CF0B81002E000C110B0053110976
:100EE00010939D0100939C017ACFE1E09FCF1B817D
:100EF0001A3281F40E94C0030E9411038091010103
:100F000090910201019609F06AC08FE291E00E947F
:100F10006802A8CF0B81033209F0A4CF8091A4010D
:100F20009091A501049709F0AEC1009101011091C3
:100F300002018091A0019091A10144E6489F900197
:100F4000499F300D11243A8329832091A2013091C9
:100F5000A301E8EEF3E02E9FC0012F9F900D3E9F6E
:100F6000900D112429813A81280F391F3A83298352
:100F700020919E0130919F014AE0429FC001439F12
:100F8000900D1124E981FA81E80FF91F80919C01ED
:100F900090919D01E80FF91FFA83E9830F3F100735
:100FA00009F509811A8110930201009301010E9441
:100FB00011038DE491E00E94680268EE73E080E026
:100FC00090E00E94AB010E9411030E94C0036CEBF1
:100FD00072E080E090E00E94AB010E9411038CE37C
:100FE00091E095CF81E029813A810217130709F03A
:100FF00080E080939B010E94110349815A8161E046
:101000008EE00417150719F50E944A0160E08EE092
:101010000E941C0161E08FE00E944A0161E08FE0C4
:101020000E941C0161E080E10E944A0160E080E1D1
:101030000E941C018CE591E00E9468028AE590E024
:101040000E948E0010929A0110929901BECF0E94C8
:101050004A0161E08EE00E941C0161E08FE00E9485
:101060004A0160E08FE00E941C0161E080E10E9483
:101070004A0160E080E10E941C0185E691E00E9447
:10108000680290E080E00E948E008091990190912A
:101090009A01019690939A018093990180910001A1
:1010A000863059F5E2E7F0E0149117FF55C08091C2
:1010B000990190919A0103970CF487CF0E94110334
:1010C0008CE691E00E94680261E082E10E941C01CE
:1010D00064E670E080E090E00E94AB0160E082E1B5
:1010E0000E941C0110929A011092990160E375E729
:1010F00080E090E00E94AB0168CF8F3FC1F686E0B0
:1011000080930001E2E7F0E014911F3F81F211307B
:1011100009F443C050F0123009F45CC017FDC7CF8A
:1011200061E086E00E944A011EC014BC15BC84B573
:10113000826084BD85B5816085BDF5018491E82F0D
:10114000F0E0EE0FFF1FE358FF4F85919491F401FB
:10115000849180938C0110E061E086E00E944A0156
:10116000112309F458C0123009F069C08091B10010
:10117000887F83608093B10089EF8093B3004092B1
:101180008D0150928E0160928F017092900180913A
:1011900070008260809370008ACF1092800010925D
:1011A000810080918100886080938100809181001E
:1011B000816080938100F5018491E82FF0E0EE0FCB
:1011C000FF1FE358FF4F85919491F4018491809320
:1011D0008B01C2CF1092B0001092B1008091B0008C
:1011E00082608093B0008091B10081608093B100F3
:1011F000F5018491E82FF0E0EE0FFF1FE358FF4F59
:101200008591949190938A0180938901F40184914E
:1012100080938801A1CF85B5887F836085BD8CE7E9
:1012200087BD40929501509296016092970170920D
:10123000980180916E00826080936E0038CF1130EB
:10124000D1F480918100887F8160809381000FE3D9
:101250001FE1109389000093880040929101509201
:101260009201609293017092940180916F0082606C
:1012700080936F001CCF123021F0111118CF8FE333
:10128000CFCF8FE37ACF0E94110385E791E00E94D0
:1012900068020E94C003E6CD1092AA01E3CDCF936D
:1012A0001092DE011092DD018DE091E09093DC015F
:1012B0008093DB0184E08093DF01CFEFC093E001F6
:1012C00085E08093E1011092E20181E08093E301E7
:1012D00082E08093E40183E08093E5011092E601CF
:1012E0001092E7011092E8011092E9011092EA01D0
:1012F00081E00E941903809186018C3018F591E0FD
:10130000980F909386018093D80190E0FC01EE0F36
:10131000FF1FE80FF91FEC54FE4F88EB9BE0928310
:1013200081831092F4011092F3011092F601109251
:10133000F5011092F8011092F70190E080E0CF9152
:101340000C943C02C093D801ECCF8091F3019091B2
:10135000F401009711F00C94F60A0895052E97FBFE
:101360001EF400940E94C50957FD07D00E94170A79
:1013700007FC03D04EF40C94C50950954095309568
:1013800021953F4F4F4F5F4F0895909580957095F1
:1013900061957F4F8F4F9F4F08950E94390AA59FF7
:1013A000900DB49F900DA49F800D911D1124089560
:1013B000B7FF0C94CD090E94CD09821B930B0895B1
:1013C0002F923F924F925F926F927F928F929F9255
:1013D000AF92BF92CF92DF92EF92FF920F931F9343
:1013E000CF93DF93CDB7DEB7CA1BDB0B0FB6F894F4
:1013F000DEBF0FBECDBF09942A88398848885F8434
:101400006E847D848C849B84AA84B984C884DF80A4
:10141000EE80FD800C811B81AA81B981CE0FD11D88
:101420000FB6F894DEBF0FBECDBFED010895A1E267
:101430001A2EAA1BBB1BFD010DC0AA1FBB1FEE1F4E
:10144000FF1FA217B307E407F50720F0A21BB30B99
:10145000E40BF50B661F771F881F991F1A9469F715
:1014600060957095809590959B01AC01BD01CF0171
:101470000895A29FB001B39FC001A39F700D811D6D
:101480001124911DB29F700D811D1124911D08958D
:10149000991B79E004C0991F961708F0961B881FC6
:1014A0007A95C9F780950895EE0FFF1F0590F49186
:1014B000E02D09940F931F93CF93DF938230910512
:1014C00010F482E090E0E091FB01F091FC0130E04B
:1014D00020E0B0E0A0E0309799F42115310509F43F
:1014E0004AC0281B390B24303105D8F58A819B81ED
:1014F0006115710589F1FB0193838283FE0111C09F
:10150000408151810281138148175907E0F0481743
:10151000590799F4109761F012960C93129713964D
:101520001C933296CF01DF91CF911F910F910895B7
:101530000093FB011093FC01F4CF2115310551F00C
:101540004217530738F0A901DB019A01BD01DF0101
:10155000F801C1CFEF01F9CF9093FC018093FB011B
:10156000CDCFFE01E20FF31F8193919322503109F9
:1015700039832883D7CF2091F9013091FA01232BA9
:1015800041F420910501309106013093FA01209336
:10159000F90120910301309104012115310541F435
:1015A0002DB73EB74091070150910801241B350B20
:1015B000E091F901F091FA01E217F307A0F42E1B74
:1015C0003F0B2817390778F0AC014E5F5F4F2417A7
:1015D000350748F04E0F5F1F5093FA014093F90111
:1015E000819391939FCFF0E0E0E09CCFCF93DF9386
:1015F0000097E9F0FC01329713821282A091FB015F
:10160000B091FC01ED0130E020E01097A1F42081C1
:101610003181820F931F2091F9013091FA0128172F
:10162000390709F061C0F093FA01E093F901DF9105
:10163000CF910895EA01CE17DF07E8F54A815B8173
:101640009E0141155105B1F7E901FB83EA834991F8
:101650005991C40FD51FEC17FD0761F4808191816A
:101660000296840F951FE901998388838281938173
:101670009B838A83F0E0E0E012968D919C91139712
:101680000097B9F52D913C911197CD010296820FEB
:10169000931F2091F9013091FA012817390739F683
:1016A000309751F51092FC011092FB01B093FA01B2
:1016B000A093F901BCCFD383C28340815181840FB1
:1016C000951FC817D90761F44E5F5F4F88819981D4
:1016D000480F591F518340838A819B819383828362
:1016E0002115310509F0B0CFF093FC01E093FB0127
:1016F0009ECFFD01DC01C0CF13821282D7CFB0E0B4
:10170000A0E0E5E8FBE00C94E2098C01009751F4BD
:10171000CB010E945A0A8C01C801CDB7DEB7E0E1C7
:101720000C94FE09FC01E60FF71F9C0122503109C1
:10173000E217F30708F49DC0D901CD91DC91119710
:10174000C617D70798F0C530D10530F3CE010497FE
:101750008617970708F3C61BD70B2297C193D1931F
:101760006D937C93CF010E94F60AD6CF5B01AC1A31
:10177000BD0A4C018C0E9D1EA091FB01B091FC0195
:10178000512C412CF12CE12C109731F58091F9016D
:101790009091FA018815990509F05CC04616570624
:1017A00008F058C08091030190910401009741F422
:1017B0008DB79EB74091070150910801841B950B8E
:1017C000E817F90708F055C0F093FA01E093F90122
:1017D000F90171836083A0CF8D919C91119712962E
:1017E0006C90129713967C901397A815B90559F52C
:1017F0006C0142E0C40ED11CCA14DB0420F1AC0120
:101800004A195B09DA011296159780F06282738299
:1018100051834083D9016D937C93E114F10471F0FD
:10182000D7011396FC93EE93129776CF22968C0FE6
:101830009D1FF90191838083F301EFCFF093FC01A9
:10184000E093FB0169CF4816590608F42C017D018D
:10185000D3019ACFCB010E945A0A7C01009749F02C
:10186000AE01B8010E943C0CC8010E94F60A870133
:1018700053CF10E000E050CFFB01DC0102C001902B
:101880000D9241505040D8F70895FB01DC010190C2
:101890000D920020E1F7089510E0C3E6D0E004C007
:1018A000FE010E94540A2196C436D107C9F7F89464
:1018B000FFCFFFFFFF0000FD01800000000000BA25
:1018C00003DD010B020A0231323334353637383941
:1018D0002A30230D000C000B000700080009000A45
:1018E000005365742050617373776F726400456EA6
:1018F0007465722050617373776F7264002A0050B0
:10190000617373776F726420536176656400436F0F
:101910007272656374210057726F6E672100426CAA
:101920006F636B65642100456E74657220342064BA
:0819300069676974732100006E
:107E0000112484B714BE81FFF0D085E080938100F7
:107E100082E08093C00088E18093C10086E0809377
:107E2000C20080E18093C4008EE0C9D0259A86E02C
:107E300020E33CEF91E0309385002093840096BBD3
:107E4000B09BFECF1D9AA8958150A9F7CC24DD24C4
:107E500088248394B5E0AB2EA1E19A2EF3E0BF2EE7
:107E6000A2D0813461F49FD0082FAFD0023811F036
:107E7000013811F484E001C083E08DD089C08234E0
:107E800011F484E103C0853419F485E0A6D080C0E4
:107E9000853579F488D0E82EFF2485D0082F10E0AE
:107EA000102F00270E291F29000F111F8ED06801E7
:107EB0006FC0863521F484E090D080E0DECF843638
:107EC00009F040C070D06FD0082F6DD080E0C81688
:107ED00080E7D80618F4F601B7BEE895C0E0D1E017
:107EE00062D089930C17E1F7F0E0CF16F0E7DF06D8
:107EF00018F0F601B7BEE89568D007B600FCFDCFD4
:107F0000A601A0E0B1E02C9130E011968C91119780
:107F100090E0982F8827822B932B1296FA010C0160
:107F200087BEE89511244E5F5F4FF1E0A038BF0790
:107F300051F7F601A7BEE89507B600FCFDCF97BE46
:107F4000E89526C08437B1F42ED02DD0F82E2BD052
:107F50003CD0F601EF2C8F010F5F1F4F84911BD097
:107F6000EA94F801C1F70894C11CD11CFA94CF0C13
:107F7000D11C0EC0853739F428D08EE10CD085E9AC
:107F80000AD08FE07ACF813511F488E018D01DD067
:107F900080E101D065CF982F8091C00085FFFCCF94
:107FA0009093C60008958091C00087FFFCCF809118
:107FB000C00084FD01C0A8958091C6000895E0E648
:107FC000F0E098E1908380830895EDDF803219F02E
:107FD00088E0F5DFFFCF84E1DECF1F93182FE3DFCA
:107FE0001150E9F7F2DF1F91089580E0E8DFEE27F6
:047FF000FF270994CA
:027FFE00040479
:00000001FF
